{"contracts/TokenUtils.sol":{"TokenUtils":{"abi":[{"inputs":[{"internalType":"address[]","name":"tokenAddresses","type":"address[]"}],"name":"getTokenInfo","outputs":[{"components":[{"internalType":"address","name":"tokenAddress","type":"address"},{"internalType":"bool","name":"isERC20","type":"bool"},{"internalType":"string","name":"name","type":"string"},{"internalType":"string","name":"symbol","type":"string"},{"internalType":"uint8","name":"decimals","type":"uint8"},{"internalType":"uint256","name":"totalSupply","type":"uint256"}],"internalType":"struct TokenUtils.TokenInfo[]","name":"","type":"tuple[]"}],"stateMutability":"view","type":"function"}],"devdoc":{"kind":"dev","methods":{},"version":1},"evm":{"bytecode":{"linkReferences":{},"object":"6080604052346100225761001161008c565b6040516108a76100ae82396108a790f35b600080fd5b61003b9061003e906001600160a01b031682565b90565b6001600160a01b031690565b61003b90610027565b61003b9061004a565b9061006c61003b61008892610053565b82546001600160a01b0319166001600160a01b03919091161790565b9055565b6100ab73d8da6bf26964af9d7eed9e03e53415d37aa96045600061005c565b56fe6080604052600436101561001257600080fd5b60003560e01c634a69ac50036100a757610292565b634e487b7160e01b600052604160045260246000fd5b90601f01601f1916810190811067ffffffffffffffff82111761005f57604052565b610027565b9061007861007160405190565b928361003d565b565b67ffffffffffffffff811161005f5760208091020190565b90565b6001600160a01b0381165b036100a757565b600080fd5b9050359061007882610095565b909291926100ce6100c98261007a565b610064565b93818552602080860192028301928184116100a757915b8383106100f25750505050565b6020809161010084866100ac565b8152019201916100e5565b9080601f830112156100a757816020610092933591016100b9565b906020828203126100a757813567ffffffffffffffff81116100a757610092920161010b565b60005b83811061015f5750506000910152565b818101518382015260200161014f565b6101906101996020936101a393610184815190565b80835293849260200190565b9586910161014c565b601f01601f191690565b0190565b80516001600160a01b03168252906100929060a0806101f66101e460c085016020888101511515908701526040880151868203604088015261016f565b6060870151858203606087015261016f565b60808087015160ff1690850152940151910152565b90610092916101a7565b9061022b610221835190565b8083529160200190565b908161023d6020830284019460200190565b926000915b83831061025157505050505090565b9091929394602061027461026d8385600195038752895161020b565b9760200190565b9301930191939290610242565b602080825261009292910190610215565b346100a7576102b96102ad6102a8366004610126565b6104ee565b60405191829182610281565b0390f35b906102ca6100c98361007a565b918252565b61009260c0610064565b6102e16102cf565b906000825260208080808080870160008152016060815201606081520160008152016000905250565b6100926102d9565b60005b82811061032157505050565b60209061032c61030a565b8184015201610315565b9061007861034c610346846102bd565b9361007a565b601f190160208401610312565b6100926100926100929290565b634e487b7160e01b600052601160045260246000fd5b600019811461038b5760010190565b610366565b634e487b7160e01b600052603260045260246000fd5b906103af825190565b8110156103c0576020809102010190565b610390565b67ffffffffffffffff811161005f57602090601f01601f19160190565b906102ca6100c9836103c5565b61009260006103e2565b6100926103ef565b61040e6100926100929290565b60ff1690565b3d1561042e576104233d6103e2565b903d6000602084013e565b606090565b909291926104436100c9826103c5565b938185526020850190828401116100a7576100789261014c565b9080601f830112156100a757815161009292602001610433565b906020828203126100a757815167ffffffffffffffff81116100a757610092920161045d565b60ff81166100a0565b905051906100788261049d565b906020828203126100a757610092916104a6565b806100a0565b90505190610078826104c7565b906020828203126100a757610092916104cd565b906104ff6104fa835190565b610336565b9160009061050c82610359565b610517610092835190565b81101561086c57808361053d61053061079d94866103a6565b516001600160a01b031690565b803b61054f61054b84610359565b9190565b14610800576107829061077b83610771818061056a60405190565b6306fdde0360e01b602082015261058f81602481015b6020820181038252038261003d565b805190602001875afa61076a6105a3610414565b9161076385806105b260405190565b6395d89b4160e01b60208201526105cc8160248101610580565b8051906020018b5afa916105de610414565b948988806105eb60405190565b63313ce56760e01b60208201526106058160248101610580565b805190602001845afa96610617610414565b908a8061062360405190565b6318160ddd60e01b602082015261063d8160248101610580565b805190602001865afa9a80610650610414565b9461058061069261066884546001600160a01b031690565b6040516370a0823160e01b6020820152928391602483016001600160a01b03909116815260200190565b602081019051915afa936106a4610414565b50846107f8575b846107f0575b846107e8575b846107e0575b61075a94956000146107d1578060206106d76106e2935190565b818301019101610477565b965b156107c2578060206106d76106f7935190565b975b600090156107b2575080602061071061071b935190565b8183010191016104b3565b985b600090156107a2575080602061073461073f935190565b8183010191016104da565b995b6107496102cf565b9c8d01906001600160a01b03169052565b151560208b0152565b6040890152565b6060870152565b60ff166080850152565b60a0830152565b61078c82886103a6565b5261079781876103a6565b5061037c565b61050c565b6107ac9150610359565b99610741565b6107bc9150610401565b9861071d565b506107cb6103f9565b976106f9565b506107da6103f9565b966106e4565b8994506106bd565b8594506106b7565b8794506106b1565b8b94506106ab565b905061081e61080d6102cf565b6001600160a01b0390921686830152565b84151560208201526108386108316103f9565b6040830152565b61084a6108436103f9565b6060830152565b61086061085686610401565b60ff166080830152565b61078261077b86610359565b50505056fea264697066735822122046ef08038f78d6548bec648031bb16d7943e8a9abdd3f267137b4d9da5cd233b64736f6c63430008140033","opcodes":"PUSH1 0x80 PUSH1 0x40 MSTORE CALLVALUE PUSH2 0x22 JUMPI PUSH2 0x11 PUSH2 0x8C JUMP JUMPDEST PUSH1 0x40 MLOAD PUSH2 0x8A7 PUSH2 0xAE DUP3 CODECOPY PUSH2 0x8A7 SWAP1 RETURN JUMPDEST PUSH1 0x0 DUP1 REVERT JUMPDEST PUSH2 0x3B SWAP1 PUSH2 0x3E SWAP1 PUSH1 0x1 PUSH1 0x1 PUSH1 0xA0 SHL SUB AND DUP3 JUMP JUMPDEST SWAP1 JUMP JUMPDEST PUSH1 0x1 PUSH1 0x1 PUSH1 0xA0 SHL SUB AND SWAP1 JUMP JUMPDEST PUSH2 0x3B SWAP1 PUSH2 0x27 JUMP JUMPDEST PUSH2 0x3B SWAP1 PUSH2 0x4A JUMP JUMPDEST SWAP1 PUSH2 0x6C PUSH2 0x3B PUSH2 0x88 SWAP3 PUSH2 0x53 JUMP JUMPDEST DUP3 SLOAD PUSH1 0x1 PUSH1 0x1 PUSH1 0xA0 SHL SUB NOT AND PUSH1 0x1 PUSH1 0x1 PUSH1 0xA0 SHL SUB SWAP2 SWAP1 SWAP2 AND OR SWAP1 JUMP JUMPDEST SWAP1 SSTORE JUMP JUMPDEST PUSH2 0xAB PUSH20 0xD8DA6BF26964AF9D7EED9E03E53415D37AA96045 PUSH1 0x0 PUSH2 0x5C JUMP JUMPDEST JUMP INVALID PUSH1 0x80 PUSH1 0x40 MSTORE PUSH1 0x4 CALLDATASIZE LT ISZERO PUSH2 0x12 JUMPI PUSH1 0x0 DUP1 REVERT JUMPDEST PUSH1 0x0 CALLDATALOAD PUSH1 0xE0 SHR PUSH4 0x4A69AC50 SUB PUSH2 0xA7 JUMPI PUSH2 0x292 JUMP JUMPDEST PUSH4 0x4E487B71 PUSH1 0xE0 SHL PUSH1 0x0 MSTORE PUSH1 0x41 PUSH1 0x4 MSTORE PUSH1 0x24 PUSH1 0x0 REVERT JUMPDEST SWAP1 PUSH1 0x1F ADD PUSH1 0x1F NOT AND DUP2 ADD SWAP1 DUP2 LT PUSH8 0xFFFFFFFFFFFFFFFF DUP3 GT OR PUSH2 0x5F JUMPI PUSH1 0x40 MSTORE JUMP JUMPDEST PUSH2 0x27 JUMP JUMPDEST SWAP1 PUSH2 0x78 PUSH2 0x71 PUSH1 0x40 MLOAD SWAP1 JUMP JUMPDEST SWAP3 DUP4 PUSH2 0x3D JUMP JUMPDEST JUMP JUMPDEST PUSH8 0xFFFFFFFFFFFFFFFF DUP2 GT PUSH2 0x5F JUMPI PUSH1 0x20 DUP1 SWAP2 MUL ADD SWAP1 JUMP JUMPDEST SWAP1 JUMP JUMPDEST PUSH1 0x1 PUSH1 0x1 PUSH1 0xA0 SHL SUB DUP2 AND JUMPDEST SUB PUSH2 0xA7 JUMPI JUMP JUMPDEST PUSH1 0x0 DUP1 REVERT JUMPDEST SWAP1 POP CALLDATALOAD SWAP1 PUSH2 0x78 DUP3 PUSH2 0x95 JUMP JUMPDEST SWAP1 SWAP3 SWAP2 SWAP3 PUSH2 0xCE PUSH2 0xC9 DUP3 PUSH2 0x7A JUMP JUMPDEST PUSH2 0x64 JUMP JUMPDEST SWAP4 DUP2 DUP6 MSTORE PUSH1 0x20 DUP1 DUP7 ADD SWAP3 MUL DUP4 ADD SWAP3 DUP2 DUP5 GT PUSH2 0xA7 JUMPI SWAP2 JUMPDEST DUP4 DUP4 LT PUSH2 0xF2 JUMPI POP POP POP POP JUMP JUMPDEST PUSH1 0x20 DUP1 SWAP2 PUSH2 0x100 DUP5 DUP7 PUSH2 0xAC JUMP JUMPDEST DUP2 MSTORE ADD SWAP3 ADD SWAP2 PUSH2 0xE5 JUMP JUMPDEST SWAP1 DUP1 PUSH1 0x1F DUP4 ADD SLT ISZERO PUSH2 0xA7 JUMPI DUP2 PUSH1 0x20 PUSH2 0x92 SWAP4 CALLDATALOAD SWAP2 ADD PUSH2 0xB9 JUMP JUMPDEST SWAP1 PUSH1 0x20 DUP3 DUP3 SUB SLT PUSH2 0xA7 JUMPI DUP2 CALLDATALOAD PUSH8 0xFFFFFFFFFFFFFFFF DUP2 GT PUSH2 0xA7 JUMPI PUSH2 0x92 SWAP3 ADD PUSH2 0x10B JUMP JUMPDEST PUSH1 0x0 JUMPDEST DUP4 DUP2 LT PUSH2 0x15F JUMPI POP POP PUSH1 0x0 SWAP2 ADD MSTORE JUMP JUMPDEST DUP2 DUP2 ADD MLOAD DUP4 DUP3 ADD MSTORE PUSH1 0x20 ADD PUSH2 0x14F JUMP JUMPDEST PUSH2 0x190 PUSH2 0x199 PUSH1 0x20 SWAP4 PUSH2 0x1A3 SWAP4 PUSH2 0x184 DUP2 MLOAD SWAP1 JUMP JUMPDEST DUP1 DUP4 MSTORE SWAP4 DUP5 SWAP3 PUSH1 0x20 ADD SWAP1 JUMP JUMPDEST SWAP6 DUP7 SWAP2 ADD PUSH2 0x14C JUMP JUMPDEST PUSH1 0x1F ADD PUSH1 0x1F NOT AND SWAP1 JUMP JUMPDEST ADD SWAP1 JUMP JUMPDEST DUP1 MLOAD PUSH1 0x1 PUSH1 0x1 PUSH1 0xA0 SHL SUB AND DUP3 MSTORE SWAP1 PUSH2 0x92 SWAP1 PUSH1 0xA0 DUP1 PUSH2 0x1F6 PUSH2 0x1E4 PUSH1 0xC0 DUP6 ADD PUSH1 0x20 DUP9 DUP2 ADD MLOAD ISZERO ISZERO SWAP1 DUP8 ADD MSTORE PUSH1 0x40 DUP9 ADD MLOAD DUP7 DUP3 SUB PUSH1 0x40 DUP9 ADD MSTORE PUSH2 0x16F JUMP JUMPDEST PUSH1 0x60 DUP8 ADD MLOAD DUP6 DUP3 SUB PUSH1 0x60 DUP8 ADD MSTORE PUSH2 0x16F JUMP JUMPDEST PUSH1 0x80 DUP1 DUP8 ADD MLOAD PUSH1 0xFF AND SWAP1 DUP6 ADD MSTORE SWAP5 ADD MLOAD SWAP2 ADD MSTORE JUMP JUMPDEST SWAP1 PUSH2 0x92 SWAP2 PUSH2 0x1A7 JUMP JUMPDEST SWAP1 PUSH2 0x22B PUSH2 0x221 DUP4 MLOAD SWAP1 JUMP JUMPDEST DUP1 DUP4 MSTORE SWAP2 PUSH1 0x20 ADD SWAP1 JUMP JUMPDEST SWAP1 DUP2 PUSH2 0x23D PUSH1 0x20 DUP4 MUL DUP5 ADD SWAP5 PUSH1 0x20 ADD SWAP1 JUMP JUMPDEST SWAP3 PUSH1 0x0 SWAP2 JUMPDEST DUP4 DUP4 LT PUSH2 0x251 JUMPI POP POP POP POP POP SWAP1 JUMP JUMPDEST SWAP1 SWAP2 SWAP3 SWAP4 SWAP5 PUSH1 0x20 PUSH2 0x274 PUSH2 0x26D DUP4 DUP6 PUSH1 0x1 SWAP6 SUB DUP8 MSTORE DUP10 MLOAD PUSH2 0x20B JUMP JUMPDEST SWAP8 PUSH1 0x20 ADD SWAP1 JUMP JUMPDEST SWAP4 ADD SWAP4 ADD SWAP2 SWAP4 SWAP3 SWAP1 PUSH2 0x242 JUMP JUMPDEST PUSH1 0x20 DUP1 DUP3 MSTORE PUSH2 0x92 SWAP3 SWAP2 ADD SWAP1 PUSH2 0x215 JUMP JUMPDEST CALLVALUE PUSH2 0xA7 JUMPI PUSH2 0x2B9 PUSH2 0x2AD PUSH2 0x2A8 CALLDATASIZE PUSH1 0x4 PUSH2 0x126 JUMP JUMPDEST PUSH2 0x4EE JUMP JUMPDEST PUSH1 0x40 MLOAD SWAP2 DUP3 SWAP2 DUP3 PUSH2 0x281 JUMP JUMPDEST SUB SWAP1 RETURN JUMPDEST SWAP1 PUSH2 0x2CA PUSH2 0xC9 DUP4 PUSH2 0x7A JUMP JUMPDEST SWAP2 DUP3 MSTORE JUMP JUMPDEST PUSH2 0x92 PUSH1 0xC0 PUSH2 0x64 JUMP JUMPDEST PUSH2 0x2E1 PUSH2 0x2CF JUMP JUMPDEST SWAP1 PUSH1 0x0 DUP3 MSTORE PUSH1 0x20 DUP1 DUP1 DUP1 DUP1 DUP1 DUP8 ADD PUSH1 0x0 DUP2 MSTORE ADD PUSH1 0x60 DUP2 MSTORE ADD PUSH1 0x60 DUP2 MSTORE ADD PUSH1 0x0 DUP2 MSTORE ADD PUSH1 0x0 SWAP1 MSTORE POP JUMP JUMPDEST PUSH2 0x92 PUSH2 0x2D9 JUMP JUMPDEST PUSH1 0x0 JUMPDEST DUP3 DUP2 LT PUSH2 0x321 JUMPI POP POP POP JUMP JUMPDEST PUSH1 0x20 SWAP1 PUSH2 0x32C PUSH2 0x30A JUMP JUMPDEST DUP2 DUP5 ADD MSTORE ADD PUSH2 0x315 JUMP JUMPDEST SWAP1 PUSH2 0x78 PUSH2 0x34C PUSH2 0x346 DUP5 PUSH2 0x2BD JUMP JUMPDEST SWAP4 PUSH2 0x7A JUMP JUMPDEST PUSH1 0x1F NOT ADD PUSH1 0x20 DUP5 ADD PUSH2 0x312 JUMP JUMPDEST PUSH2 0x92 PUSH2 0x92 PUSH2 0x92 SWAP3 SWAP1 JUMP JUMPDEST PUSH4 0x4E487B71 PUSH1 0xE0 SHL PUSH1 0x0 MSTORE PUSH1 0x11 PUSH1 0x4 MSTORE PUSH1 0x24 PUSH1 0x0 REVERT JUMPDEST PUSH1 0x0 NOT DUP2 EQ PUSH2 0x38B JUMPI PUSH1 0x1 ADD SWAP1 JUMP JUMPDEST PUSH2 0x366 JUMP JUMPDEST PUSH4 0x4E487B71 PUSH1 0xE0 SHL PUSH1 0x0 MSTORE PUSH1 0x32 PUSH1 0x4 MSTORE PUSH1 0x24 PUSH1 0x0 REVERT JUMPDEST SWAP1 PUSH2 0x3AF DUP3 MLOAD SWAP1 JUMP JUMPDEST DUP2 LT ISZERO PUSH2 0x3C0 JUMPI PUSH1 0x20 DUP1 SWAP2 MUL ADD ADD SWAP1 JUMP JUMPDEST PUSH2 0x390 JUMP JUMPDEST PUSH8 0xFFFFFFFFFFFFFFFF DUP2 GT PUSH2 0x5F JUMPI PUSH1 0x20 SWAP1 PUSH1 0x1F ADD PUSH1 0x1F NOT AND ADD SWAP1 JUMP JUMPDEST SWAP1 PUSH2 0x2CA PUSH2 0xC9 DUP4 PUSH2 0x3C5 JUMP JUMPDEST PUSH2 0x92 PUSH1 0x0 PUSH2 0x3E2 JUMP JUMPDEST PUSH2 0x92 PUSH2 0x3EF JUMP JUMPDEST PUSH2 0x40E PUSH2 0x92 PUSH2 0x92 SWAP3 SWAP1 JUMP JUMPDEST PUSH1 0xFF AND SWAP1 JUMP JUMPDEST RETURNDATASIZE ISZERO PUSH2 0x42E JUMPI PUSH2 0x423 RETURNDATASIZE PUSH2 0x3E2 JUMP JUMPDEST SWAP1 RETURNDATASIZE PUSH1 0x0 PUSH1 0x20 DUP5 ADD RETURNDATACOPY JUMP JUMPDEST PUSH1 0x60 SWAP1 JUMP JUMPDEST SWAP1 SWAP3 SWAP2 SWAP3 PUSH2 0x443 PUSH2 0xC9 DUP3 PUSH2 0x3C5 JUMP JUMPDEST SWAP4 DUP2 DUP6 MSTORE PUSH1 0x20 DUP6 ADD SWAP1 DUP3 DUP5 ADD GT PUSH2 0xA7 JUMPI PUSH2 0x78 SWAP3 PUSH2 0x14C JUMP JUMPDEST SWAP1 DUP1 PUSH1 0x1F DUP4 ADD SLT ISZERO PUSH2 0xA7 JUMPI DUP2 MLOAD PUSH2 0x92 SWAP3 PUSH1 0x20 ADD PUSH2 0x433 JUMP JUMPDEST SWAP1 PUSH1 0x20 DUP3 DUP3 SUB SLT PUSH2 0xA7 JUMPI DUP2 MLOAD PUSH8 0xFFFFFFFFFFFFFFFF DUP2 GT PUSH2 0xA7 JUMPI PUSH2 0x92 SWAP3 ADD PUSH2 0x45D JUMP JUMPDEST PUSH1 0xFF DUP2 AND PUSH2 0xA0 JUMP JUMPDEST SWAP1 POP MLOAD SWAP1 PUSH2 0x78 DUP3 PUSH2 0x49D JUMP JUMPDEST SWAP1 PUSH1 0x20 DUP3 DUP3 SUB SLT PUSH2 0xA7 JUMPI PUSH2 0x92 SWAP2 PUSH2 0x4A6 JUMP JUMPDEST DUP1 PUSH2 0xA0 JUMP JUMPDEST SWAP1 POP MLOAD SWAP1 PUSH2 0x78 DUP3 PUSH2 0x4C7 JUMP JUMPDEST SWAP1 PUSH1 0x20 DUP3 DUP3 SUB SLT PUSH2 0xA7 JUMPI PUSH2 0x92 SWAP2 PUSH2 0x4CD JUMP JUMPDEST SWAP1 PUSH2 0x4FF PUSH2 0x4FA DUP4 MLOAD SWAP1 JUMP JUMPDEST PUSH2 0x336 JUMP JUMPDEST SWAP2 PUSH1 0x0 SWAP1 PUSH2 0x50C DUP3 PUSH2 0x359 JUMP JUMPDEST PUSH2 0x517 PUSH2 0x92 DUP4 MLOAD SWAP1 JUMP JUMPDEST DUP2 LT ISZERO PUSH2 0x86C JUMPI DUP1 DUP4 PUSH2 0x53D PUSH2 0x530 PUSH2 0x79D SWAP5 DUP7 PUSH2 0x3A6 JUMP JUMPDEST MLOAD PUSH1 0x1 PUSH1 0x1 PUSH1 0xA0 SHL SUB AND SWAP1 JUMP JUMPDEST DUP1 EXTCODESIZE PUSH2 0x54F PUSH2 0x54B DUP5 PUSH2 0x359 JUMP JUMPDEST SWAP2 SWAP1 JUMP JUMPDEST EQ PUSH2 0x800 JUMPI PUSH2 0x782 SWAP1 PUSH2 0x77B DUP4 PUSH2 0x771 DUP2 DUP1 PUSH2 0x56A PUSH1 0x40 MLOAD SWAP1 JUMP JUMPDEST PUSH4 0x6FDDE03 PUSH1 0xE0 SHL PUSH1 0x20 DUP3 ADD MSTORE PUSH2 0x58F DUP2 PUSH1 0x24 DUP2 ADD JUMPDEST PUSH1 0x20 DUP3 ADD DUP2 SUB DUP3 MSTORE SUB DUP3 PUSH2 0x3D JUMP JUMPDEST DUP1 MLOAD SWAP1 PUSH1 0x20 ADD DUP8 GAS STATICCALL PUSH2 0x76A PUSH2 0x5A3 PUSH2 0x414 JUMP JUMPDEST SWAP2 PUSH2 0x763 DUP6 DUP1 PUSH2 0x5B2 PUSH1 0x40 MLOAD SWAP1 JUMP JUMPDEST PUSH4 0x95D89B41 PUSH1 0xE0 SHL PUSH1 0x20 DUP3 ADD MSTORE PUSH2 0x5CC DUP2 PUSH1 0x24 DUP2 ADD PUSH2 0x580 JUMP JUMPDEST DUP1 MLOAD SWAP1 PUSH1 0x20 ADD DUP12 GAS STATICCALL SWAP2 PUSH2 0x5DE PUSH2 0x414 JUMP JUMPDEST SWAP5 DUP10 DUP9 DUP1 PUSH2 0x5EB PUSH1 0x40 MLOAD SWAP1 JUMP JUMPDEST PUSH4 0x313CE567 PUSH1 0xE0 SHL PUSH1 0x20 DUP3 ADD MSTORE PUSH2 0x605 DUP2 PUSH1 0x24 DUP2 ADD PUSH2 0x580 JUMP JUMPDEST DUP1 MLOAD SWAP1 PUSH1 0x20 ADD DUP5 GAS STATICCALL SWAP7 PUSH2 0x617 PUSH2 0x414 JUMP JUMPDEST SWAP1 DUP11 DUP1 PUSH2 0x623 PUSH1 0x40 MLOAD SWAP1 JUMP JUMPDEST PUSH4 0x18160DDD PUSH1 0xE0 SHL PUSH1 0x20 DUP3 ADD MSTORE PUSH2 0x63D DUP2 PUSH1 0x24 DUP2 ADD PUSH2 0x580 JUMP JUMPDEST DUP1 MLOAD SWAP1 PUSH1 0x20 ADD DUP7 GAS STATICCALL SWAP11 DUP1 PUSH2 0x650 PUSH2 0x414 JUMP JUMPDEST SWAP5 PUSH2 0x580 PUSH2 0x692 PUSH2 0x668 DUP5 SLOAD PUSH1 0x1 PUSH1 0x1 PUSH1 0xA0 SHL SUB AND SWAP1 JUMP JUMPDEST PUSH1 0x40 MLOAD PUSH4 0x70A08231 PUSH1 0xE0 SHL PUSH1 0x20 DUP3 ADD MSTORE SWAP3 DUP4 SWAP2 PUSH1 0x24 DUP4 ADD PUSH1 0x1 PUSH1 0x1 PUSH1 0xA0 SHL SUB SWAP1 SWAP2 AND DUP2 MSTORE PUSH1 0x20 ADD SWAP1 JUMP JUMPDEST PUSH1 0x20 DUP2 ADD SWAP1 MLOAD SWAP2 GAS STATICCALL SWAP4 PUSH2 0x6A4 PUSH2 0x414 JUMP JUMPDEST POP DUP5 PUSH2 0x7F8 JUMPI JUMPDEST DUP5 PUSH2 0x7F0 JUMPI JUMPDEST DUP5 PUSH2 0x7E8 JUMPI JUMPDEST DUP5 PUSH2 0x7E0 JUMPI JUMPDEST PUSH2 0x75A SWAP5 SWAP6 PUSH1 0x0 EQ PUSH2 0x7D1 JUMPI DUP1 PUSH1 0x20 PUSH2 0x6D7 PUSH2 0x6E2 SWAP4 MLOAD SWAP1 JUMP JUMPDEST DUP2 DUP4 ADD ADD SWAP2 ADD PUSH2 0x477 JUMP JUMPDEST SWAP7 JUMPDEST ISZERO PUSH2 0x7C2 JUMPI DUP1 PUSH1 0x20 PUSH2 0x6D7 PUSH2 0x6F7 SWAP4 MLOAD SWAP1 JUMP JUMPDEST SWAP8 JUMPDEST PUSH1 0x0 SWAP1 ISZERO PUSH2 0x7B2 JUMPI POP DUP1 PUSH1 0x20 PUSH2 0x710 PUSH2 0x71B SWAP4 MLOAD SWAP1 JUMP JUMPDEST DUP2 DUP4 ADD ADD SWAP2 ADD PUSH2 0x4B3 JUMP JUMPDEST SWAP9 JUMPDEST PUSH1 0x0 SWAP1 ISZERO PUSH2 0x7A2 JUMPI POP DUP1 PUSH1 0x20 PUSH2 0x734 PUSH2 0x73F SWAP4 MLOAD SWAP1 JUMP JUMPDEST DUP2 DUP4 ADD ADD SWAP2 ADD PUSH2 0x4DA JUMP JUMPDEST SWAP10 JUMPDEST PUSH2 0x749 PUSH2 0x2CF JUMP JUMPDEST SWAP13 DUP14 ADD SWAP1 PUSH1 0x1 PUSH1 0x1 PUSH1 0xA0 SHL SUB AND SWAP1 MSTORE JUMP JUMPDEST ISZERO ISZERO PUSH1 0x20 DUP12 ADD MSTORE JUMP JUMPDEST PUSH1 0x40 DUP10 ADD MSTORE JUMP JUMPDEST PUSH1 0x60 DUP8 ADD MSTORE JUMP JUMPDEST PUSH1 0xFF AND PUSH1 0x80 DUP6 ADD MSTORE JUMP JUMPDEST PUSH1 0xA0 DUP4 ADD MSTORE JUMP JUMPDEST PUSH2 0x78C DUP3 DUP9 PUSH2 0x3A6 JUMP JUMPDEST MSTORE PUSH2 0x797 DUP2 DUP8 PUSH2 0x3A6 JUMP JUMPDEST POP PUSH2 0x37C JUMP JUMPDEST PUSH2 0x50C JUMP JUMPDEST PUSH2 0x7AC SWAP2 POP PUSH2 0x359 JUMP JUMPDEST SWAP10 PUSH2 0x741 JUMP JUMPDEST PUSH2 0x7BC SWAP2 POP PUSH2 0x401 JUMP JUMPDEST SWAP9 PUSH2 0x71D JUMP JUMPDEST POP PUSH2 0x7CB PUSH2 0x3F9 JUMP JUMPDEST SWAP8 PUSH2 0x6F9 JUMP JUMPDEST POP PUSH2 0x7DA PUSH2 0x3F9 JUMP JUMPDEST SWAP7 PUSH2 0x6E4 JUMP JUMPDEST DUP10 SWAP5 POP PUSH2 0x6BD JUMP JUMPDEST DUP6 SWAP5 POP PUSH2 0x6B7 JUMP JUMPDEST DUP8 SWAP5 POP PUSH2 0x6B1 JUMP JUMPDEST DUP12 SWAP5 POP PUSH2 0x6AB JUMP JUMPDEST SWAP1 POP PUSH2 0x81E PUSH2 0x80D PUSH2 0x2CF JUMP JUMPDEST PUSH1 0x1 PUSH1 0x1 PUSH1 0xA0 SHL SUB SWAP1 SWAP3 AND DUP7 DUP4 ADD MSTORE JUMP JUMPDEST DUP5 ISZERO ISZERO PUSH1 0x20 DUP3 ADD MSTORE PUSH2 0x838 PUSH2 0x831 PUSH2 0x3F9 JUMP JUMPDEST PUSH1 0x40 DUP4 ADD MSTORE JUMP JUMPDEST PUSH2 0x84A PUSH2 0x843 PUSH2 0x3F9 JUMP JUMPDEST PUSH1 0x60 DUP4 ADD MSTORE JUMP JUMPDEST PUSH2 0x860 PUSH2 0x856 DUP7 PUSH2 0x401 JUMP JUMPDEST PUSH1 0xFF AND PUSH1 0x80 DUP4 ADD MSTORE JUMP JUMPDEST PUSH2 0x782 PUSH2 0x77B DUP7 PUSH2 0x359 JUMP JUMPDEST POP POP POP JUMP INVALID LOG2 PUSH5 0x6970667358 0x22 SLT KECCAK256 CHAINID 0xEF ADDMOD SUB DUP16 PUSH25 0xD6548BEC648031BB16D7943E8A9ABDD3F267137B4D9DA5CD23 EXTCODESIZE PUSH5 0x736F6C6343 STOP ADDMOD EQ STOP CALLER "},"gasEstimates":{"creation":{"codeDepositCost":"443000","executionCost":"infinite","totalCost":"infinite"},"external":{"getTokenInfo(address[])":"infinite"}},"methodIdentifiers":{"getTokenInfo(address[])":"4a69ac50"}},"storageLayout":{"storage":[{"astId":32,"contract":"contracts/TokenUtils.sol:TokenUtils","label":"test_address","offset":0,"slot":"0","type":"t_address"}],"types":{"t_address":{"encoding":"inplace","label":"address","numberOfBytes":"20"}}},"userdoc":{"kind":"user","methods":{},"version":1}}}}