{
  "_format": "hh-sol-artifact-1",
  "contractName": "TokenUtils",
  "sourceName": "contracts/TokenUtils.sol",
  "abi": [
    {
      "inputs": [
        {
          "internalType": "address[]",
          "name": "tokenAddresses",
          "type": "address[]"
        }
      ],
      "name": "getTokenInfo",
      "outputs": [
        {
          "components": [
            {
              "internalType": "address",
              "name": "tokenAddress",
              "type": "address"
            },
            {
              "internalType": "bool",
              "name": "isERC20",
              "type": "bool"
            },
            {
              "internalType": "string",
              "name": "name",
              "type": "string"
            },
            {
              "internalType": "string",
              "name": "symbol",
              "type": "string"
            },
            {
              "internalType": "uint8",
              "name": "decimals",
              "type": "uint8"
            },
            {
              "internalType": "uint256",
              "name": "totalSupply",
              "type": "uint256"
            }
          ],
          "internalType": "struct TokenUtils.TokenInfo[]",
          "name": "",
          "type": "tuple[]"
        }
      ],
      "stateMutability": "view",
      "type": "function"
    }
  ],
  "bytecode": "0x6080604052346100225761001161008c565b6040516108a76100ae82396108a790f35b600080fd5b61003b9061003e906001600160a01b031682565b90565b6001600160a01b031690565b61003b90610027565b61003b9061004a565b9061006c61003b61008892610053565b82546001600160a01b0319166001600160a01b03919091161790565b9055565b6100ab73d8da6bf26964af9d7eed9e03e53415d37aa96045600061005c565b56fe6080604052600436101561001257600080fd5b60003560e01c634a69ac50036100a757610292565b634e487b7160e01b600052604160045260246000fd5b90601f01601f1916810190811067ffffffffffffffff82111761005f57604052565b610027565b9061007861007160405190565b928361003d565b565b67ffffffffffffffff811161005f5760208091020190565b90565b6001600160a01b0381165b036100a757565b600080fd5b9050359061007882610095565b909291926100ce6100c98261007a565b610064565b93818552602080860192028301928184116100a757915b8383106100f25750505050565b6020809161010084866100ac565b8152019201916100e5565b9080601f830112156100a757816020610092933591016100b9565b906020828203126100a757813567ffffffffffffffff81116100a757610092920161010b565b60005b83811061015f5750506000910152565b818101518382015260200161014f565b6101906101996020936101a393610184815190565b80835293849260200190565b9586910161014c565b601f01601f191690565b0190565b80516001600160a01b03168252906100929060a0806101f66101e460c085016020888101511515908701526040880151868203604088015261016f565b6060870151858203606087015261016f565b60808087015160ff1690850152940151910152565b90610092916101a7565b9061022b610221835190565b8083529160200190565b908161023d6020830284019460200190565b926000915b83831061025157505050505090565b9091929394602061027461026d8385600195038752895161020b565b9760200190565b9301930191939290610242565b602080825261009292910190610215565b346100a7576102b96102ad6102a8366004610126565b6104ee565b60405191829182610281565b0390f35b906102ca6100c98361007a565b918252565b61009260c0610064565b6102e16102cf565b906000825260208080808080870160008152016060815201606081520160008152016000905250565b6100926102d9565b60005b82811061032157505050565b60209061032c61030a565b8184015201610315565b9061007861034c610346846102bd565b9361007a565b601f190160208401610312565b6100926100926100929290565b634e487b7160e01b600052601160045260246000fd5b600019811461038b5760010190565b610366565b634e487b7160e01b600052603260045260246000fd5b906103af825190565b8110156103c0576020809102010190565b610390565b67ffffffffffffffff811161005f57602090601f01601f19160190565b906102ca6100c9836103c5565b61009260006103e2565b6100926103ef565b61040e6100926100929290565b60ff1690565b3d1561042e576104233d6103e2565b903d6000602084013e565b606090565b909291926104436100c9826103c5565b938185526020850190828401116100a7576100789261014c565b9080601f830112156100a757815161009292602001610433565b906020828203126100a757815167ffffffffffffffff81116100a757610092920161045d565b60ff81166100a0565b905051906100788261049d565b906020828203126100a757610092916104a6565b806100a0565b90505190610078826104c7565b906020828203126100a757610092916104cd565b906104ff6104fa835190565b610336565b9160009061050c82610359565b610517610092835190565b81101561086c57808361053d61053061079d94866103a6565b516001600160a01b031690565b803b61054f61054b84610359565b9190565b14610800576107829061077b83610771818061056a60405190565b6306fdde0360e01b602082015261058f81602481015b6020820181038252038261003d565b805190602001875afa61076a6105a3610414565b9161076385806105b260405190565b6395d89b4160e01b60208201526105cc8160248101610580565b8051906020018b5afa916105de610414565b948988806105eb60405190565b63313ce56760e01b60208201526106058160248101610580565b805190602001845afa96610617610414565b908a8061062360405190565b6318160ddd60e01b602082015261063d8160248101610580565b805190602001865afa9a80610650610414565b9461058061069261066884546001600160a01b031690565b6040516370a0823160e01b6020820152928391602483016001600160a01b03909116815260200190565b602081019051915afa936106a4610414565b50846107f8575b846107f0575b846107e8575b846107e0575b61075a94956000146107d1578060206106d76106e2935190565b818301019101610477565b965b156107c2578060206106d76106f7935190565b975b600090156107b2575080602061071061071b935190565b8183010191016104b3565b985b600090156107a2575080602061073461073f935190565b8183010191016104da565b995b6107496102cf565b9c8d01906001600160a01b03169052565b151560208b0152565b6040890152565b6060870152565b60ff166080850152565b60a0830152565b61078c82886103a6565b5261079781876103a6565b5061037c565b61050c565b6107ac9150610359565b99610741565b6107bc9150610401565b9861071d565b506107cb6103f9565b976106f9565b506107da6103f9565b966106e4565b8994506106bd565b8594506106b7565b8794506106b1565b8b94506106ab565b905061081e61080d6102cf565b6001600160a01b0390921686830152565b84151560208201526108386108316103f9565b6040830152565b61084a6108436103f9565b6060830152565b61086061085686610401565b60ff166080830152565b61078261077b86610359565b50505056fea264697066735822122046ef08038f78d6548bec648031bb16d7943e8a9abdd3f267137b4d9da5cd233b64736f6c63430008140033",
  "linkReferences": {},
  "deployedLinkReferences": {}
}